:020000040800F2
:10200000080D0020652100086D2100086F210008DF
:1020100071210008732100087521000800000000EC
:102020000000000000000000000000007721000810
:1020300079210008000000007B2100080948000801
:102040007F2100087F2100087F2100087F210008F0
:102050007F2100087F2100087F2100087F210008E0
:102060007F2100087F2100087F2100087F210008D0
:102070007F210008594A00087F210008BD4A000856
:102080007F2100087F210008000000007F21000858
:102090007F2100087F2100087F2100087F210008A0
:1020A0007F2100087F2100087F210008ED4F0008F4
:1020B000F14F0008000000007F2100080000000030
:1020C0007F210008000000007F2100087F21000818
:1020D0007F21000800000000000000000000000058
:1020E00000000000000000007F2100080000000048
:1020F00000000000000000000000000000000000E0
:102100007F21000800000000000000007F2100087F
:1021100000000000000000000000000000000000BF
:1021200000000000000000000000000000000000AF
:10213000000000000000000000000000000000009F
:102140000000000000000000000000007F210008E7
:10215000DFF80CD000F06EF800480047B95D0008C9
:10216000080D00200648804706480047FEE7FEE7C6
:10217000FEE7FEE7FEE7FEE7FEE7FEE7FEE7FEE737
:102180000D4800085121000840EA01039B0703D0D5
:1021900009E008C9121F08C0042AFAD203E011F8A6
:1021A000013B00F8013B521EF9D27047D2B201E068
:1021B00000F8012B491EFBD270470022F6E710B54C
:1021C00013460A4604461946FFF7F0FF204610BDA5
:1021D0002DE9F05F0546002092469B46884606465C
:1021E000814640241BE0284641464746224600F0EF
:1021F00042F853465A46C01A914110D31146184628
:10220000224600F029F82D1A67EB01084F462246B6
:102210000120002100F020F817EB00094E41201E9C
:10222000A4F10104DFDC484631462A464346BDE8B6
:10223000F09F0000064C074D06E0E06840F0010307
:1022400094E8070098471034AC42F6D3FFF784FFB8
:102250007489000894890008202A04DB203A00FAD7
:1022600002F1002070479140C2F1200320FA03F3ED
:10227000194390407047202A04DB203A21FA02F0EB
:102280000021704721FA02F3D040C2F120029140B0
:1022900008431946704700002DE9F84FC3780478C9
:1022A000857883EA04634478E24E240484EA0524B2
:1022B00063401468857983EA0409C379047983EA61
:1022C00004634479240484EA052463405468857ACD
:1022D00083EA040AC37A047A83EA0464437A1B0417
:1022E00083EA05235C409368057B5C40C37B83EAFB
:1022F0000565437B807B1B0483EA00204540D06852
:102300004540D2F8F00040100090DFF82CB34FEABF
:102310001963CAF307400BF5806E5BF823305EF853
:1023200020004340C4F3072087000BF50060C0592C
:10233000EFB256F827707840434010694FEA1A67A9
:1023400043405BF82700C4F307475EF827707840E6
:10235000C5F307274FEA870C0BF5006757F80C7099
:1023600009F0FF0C56F82CC087EA0C077840576933
:102370004FEA146C78405BF82C70C5F3074CE4B25C
:102380005EF82CC056F8244087EA0C07C9F3072CE6
:102390004FEA8C080BF5006C5CF808C00AF0FF08E7
:1023A00056F828808CEA080C87EA0C07D2F818C087
:1023B00087EA0C074FEA156C5BF82C50C9F3074C01
:1023C0005EF82CC085EA0C05CAF3072C4FEA8C088E
:1023D0000BF5006C5CF808C08CEA040CD46985EA43
:1023E0000C056540009C02F12002641E4FEA136C4C
:1023F000009472D05BF82C40C0F3074C4FEA8C0875
:10240000F4460BF5006E5CF808C005F0FF0884EA9E
:102410000C04C7F3072C56F828805EF82CC08CEA11
:10242000080C84EA0C04D2F800C084EA0C094FEAD4
:10243000106C5BF82C40C7F3074C4FEA8C080BF587
:10244000806C5CF808C003F0FF0884EA0C04C5F354
:10245000072C56F828805EF82CC08CEA080C84EA19
:102460000C04D2F804C084EA0C0A4FEA176C5BF83B
:102470002C40C5F3074C4FEA8C080BF5806C5CF8D8
:1024800008C000F0FF0884EA0C04C3F3072C56F8D8
:1024900028805EF82CC0C3F307438CEA080C84EA5A
:1024A0000C04D2F808C0C0F3072084EA0C044FEAF9
:1024B000156C5EF820005BF82C504FEA830C0BF58E
:1024C000806353F80C305D40FBB256F8233058401F
:1024D0004540D068454018E7FFE7DFF860B1B246F5
:1024E000DFF854915BF82C40C0F3074C04F07F44B4
:1024F00056F82C6005F0FF0C06F47F067440C7F315
:10250000072639F8266006F47F46744009F5806690
:1025100016F82CC084EA0C04D2F800C084EA0C043B
:102520004FEA146C81F800C04FEA144C81F801C0E6
:102530004FEA142C81F802C04FEA106CCC705BF8A3
:102540002C40C7F3074C04F07F445AF82CC00CF41D
:102550007F0C84EA0C04C5F3072C39F82CC00CF46A
:102560007F4C84EA0C0403F0FF0C16F82CC084EABC
:102570000C04D2F804C084EA0C044FEA146C81F80D
:1025800004C04FEA144C81F805C04FEA142C81F8BE
:1025900006C04FEA176CCC715BF82C40C5F3074CB2
:1025A00004F07F445AF82CC02D0E0CF47F0C84EA02
:1025B0000C04C3F3072C39F82CC00CF47F4C84EACC
:1025C0000C0400F0FF0C16F82CC084EA0C04D2F8BE
:1025D00008C084EA0C044FEA146C81F808C04FEA82
:1025E000144C81F809C04FEA142C81F80AC0CC724F
:1025F0005BF8254004F07F44C3F30743C0F3072092
:102600005AF8233039F8200003F47F035C4000F4CB
:102610007F404440F8B216F820004440D06844405F
:10262000200E0873200C4873200A8873CC73BDE811
:10263000F88F0000D8720008D8660008D86E00082D
:102640002DE9F04F002358B152B14FF4807B80291F
:1026500009D0C02907D0594505D0981EBDE8F08F94
:102660004FF0FF30FAE780297ED0C0297DD00E25BB
:10267000C2F8F050C4780578867884EA0564457815
:10268000DFF878A22D0485EA06256C401460C47931
:102690000579867984EA056445792D0485EA06255D
:1026A0006C405460C47A057A867A84EA0564457A77
:1026B0002D0485EA06256C409460C47B057B867BEF
:1026C00084EA0564457B2D0485EA06256C40AAF55D
:1026D000C856D46006F58064A4F54065A4F5006989
:1026E00080297CD0C77C90F810C090F8128087EACF
:1026F0000C6790F811C0C0294FEA0C4C8CEA082CEA
:1027000087EA0C071761C77D90F814C090F816800F
:1027100087EA0C6790F815C04FEA0C4C8CEA082C3D
:1027200087EA0C0757617DD0C77E90F818C090F8F3
:102730001A8087EA0C6790F819C04FEA0C4C8CEAB3
:10274000082C87EA0C079761C77F90F81CC087EABE
:102750000C6790F81DC0807F4FEA0C4C8CEA00207B
:102760004740D761594501E05DE05EE07DD1D34649
:10277000B246C846D1691068C1F3074601F0FF0CA4
:102780005AF8266035F82CC006F07F467040C1F339
:1027900007260CF47F4C54F8266006F47F0686EA80
:1027A0000C0670400E0E18F8266070405BF823602F
:1027B0005B1C70401062566846405662D2F808C0F2
:1027C000072B8CEA060CC2F828C0D06880EA0C00FF
:1027D000D0624AD04FEA106C5AF82C7000E026E024
:1027E000166907F07F477E40C0F30747C0F3072C08
:1027F00054F8277035F82CC0C0B207F47F070CF4EA
:102800007F4C87EA0C0718F820007E40464016638C
:10281000506970405063966946407140C2E90E614C
:102820002032A7E733E00A2522E70C2520E7C84637
:10283000D0681168C0F3074700F0FF0C56F8277006
:1028400035F82CC007F07F477940C0F307270CF418
:102850007F4C54F8277007F47F0787EA0C0779400C
:10286000070E18F82770794000E044E05AF823700A
:102870005B1C7940116157684F40576191687940FE
:102880004840C2E906100A2B35D01032D0E7C846BE
:1028900050691168C0F3074700F0FF0C56F8277025
:1028A00035F82CC007F07F477940C0F307270CF4B8
:1028B0007F4C54F8277007F47F0787EA0C077940AC
:1028C000070E18F8277079405AF823705B1C79407E
:1028D000916157684F40D761916879401162D7681C
:1028E0004F405762082B06D0116979404840C2E931
:1028F0000A101832CCE70020B0E60000D8870008A4
:1029000070B50446AA202070552060700E480D4610
:1029100010F8221F61710178491C0170681D6080E8
:1029200001202071281DA27181B2E371201D01F0E8
:10293000C9F8611909350872AAB22146BDE870408C
:10294000012002F0EBBD0000940500202DE9FC47BA
:1029500000270546914688463C46AA4696080197B8
:102960002FE05FEA897023D0721C4146504601F087
:102970005FF8042201A9504600F05DFFD8F800007E
:102980000199884219D02046641CE4B2322811D93A
:1029900001F0A4F84FF47A71B0FBF1F139230B4A3E
:1029A0000BA0009502F030FE4FF0FF30BDE8FC8731
:1029B0003246DAE700F03DFFD3E72D1D08F10408A9
:1029C0003F1D4F45CDD30020F0E70000AF66000863
:1029D0005B5538732025645D2025733A28256429CA
:1029E000666C617368D0B4CAFDBEDDB3F6B4ED5B4E
:1029F0002523785D21200A0000B5A1B0802168461A
:102A0000FFF7DBFB08496846497DA5290AD000216C
:102A10008DF80810022301220521FFF771FF21B074
:102A2000002000BD0121F3E79405002010B5007AD5
:102A300020B103A002F0E8FD002010BD06A0F9E7D8
:102A4000D6F7B0E5D0C4CCF8D3A6B4F02C20B4EDC2
:102A5000CEF3210D0A000000CAD5B5BDD6F7B0E50A
:102A6000D0C4CCF8D3A6B4F0210D0A0010B5A0B0A4
:102A700080216846FFF7A1FB02208DF808000C4872
:102A80006C46407DA52810D000208DF80900012358
:102A90001A4606212046FFF733FF1022214605A0E3
:102AA00001F05CFB20B0002010BD0120EDE700002C
:102AB000940500204261736963496E666F536861D3
:102AC0006B6548616E64000010B5007A20B105A006
:102AD00002F09AFD002010BD0849A52081F82300CE
:102AE00007A0F5E7D6F7B0E5CED5CAD6D3A6B4F0A1
:102AF0002C20B4EDCEF3210D0A0000009405002037
:102B0000CAD5B5BDD6F7B0E5CED5CAD6D3A6B4F0F2
:102B1000210D0A0010B501F035F802F04DFD00F06E
:102B200088FE01F077FF01F06FFD4FF4FA6000F0CE
:102B30006DFD02F0E3FC4FF47A71012001F0D2FF49
:102B400001F0A4FE0CA002F05FFD01F09DFB00F07F
:102B5000D1FD022001F0C4FA4FF4617000F056FD7F
:102B600009A002F051FD0223BDE810401A461946A3
:102B700009A002F049BD00005573617274496E6985
:102B800074204F4B210D0A000D0A20427370496ECC
:102B90006974206F6B0A000066775F7665727369EF
:102BA0006F6E203D2025642C20737562566572730C
:102BB000696F6E31203D2025642C20737562566547
:102BC0007273696F6E32203D2025642E0A0000006A
:102BD0007CB50A3910F8014B8DB24FF47A76402D4E
:102BE0000CD900F07BFFB0FBF6F1CDE90054912346
:102BF0000F4A10A002F008FD01207CBD17498A6A27
:102C0000012A0FD0CA6AA2420CD100F067FFB0FBC4
:102C1000F6F1CDE900549823054A114802F0F4FC7E
:102C200000207CBDCC622946BDE87C4002F0A8BAF9
:102C3000176600085B5538732025645D2025733ABC
:102C4000282564296C656E205B25645D2C205B253E
:102C5000645D2C6572726F72210A00009405002079
:102C60009488000830B5D1B050AA4AA94FA802F004
:102C700033F800287DD14AAB584A022101F030F8E0
:102C80004FF47A75F8B10024469447944894F4219F
:102C900005A84994FFF791FA504805AA8021801DA4
:102CA000FFF7CEFC4A984B904C944D944E9405AA55
:102CB00046A94BA8FFF7F0FA50AA4AA94FA802F07C
:102CC0000BF850B185E000F009FFB0FBF5F12823C7
:102CD000434A44A002F098FC7BE04294439444941D
:102CE0004AAB46AA0C210020459400F0F9FF30B110
:102CF00050AA4AA94FA801F0EFFF18B169E042A914
:102D0000312015E04AAB46AA0221002000F0E8FF7E
:102D100060B100F0E3FEB0FBF5F15423304A3BA074
:102D200002F072FC0A2001F0DBF952E042A909200E
:102D300001F01AF800284CD19DF80E019DF80C21E5
:102D40009DF810319DF80F118DE80B009DF80D31A5
:102D50000F2A1AD937A13D4802F066FC00F0BEFEEA
:102D6000B0FBF5F19DF810419DF80F319DF80E2153
:102D700000E030E09DF80D010DF1040C8CE81D0021
:102D80009DF80C016823009017E031A12F4802F054
:102D90004BFC00F0A3FEB0FBF5F19DF80D010DF129
:102DA000040C9DF810419DF80F319DF80E218CE820
:102DB0001D009DF80C016F230090094A2A4802F07B
:102DC00023FC1022214929A001F0C8F91F49A520A0
:102DD000887501F09BFF51B030BD0000000000205D
:102DE000D36500085B5538732025645D2025733A50
:102DF0002825642974686973206973205365637298
:102E00006574436172642E0A000000005B553873DC
:102E10002025645D2025733A28256429BFA8C6AC07
:102E2000C3DCC2EBC8CFD6A4CAA7B0DC2E2E2E0DB1
:102E30000A0000002530327825303278253032788B
:102E400025303278253032780000000094050020CB
:102E50002530317825303278253032782530327877
:102E6000253032780000000014880008BFA8BAC5D9
:102E70000000000070B50D46044601F0F1F920EAAB
:102E800005012046BDE8704002F0B9BB10B58021B5
:102E90000A2001F06EFB0A2001F0E2F9002800D0C0
:102EA000012010BD2DE9F047C2B04FF4807101A898
:102EB000FFF783F901AC00F011FE07464FF0080858
:102EC0004FF47A790025694EC2E000F0B2FCDFF8D9
:102ED000A0A1B6E000F0ADFC00F000FE074630789F
:102EE000092838D2DFE800F0050D183E4E5C6B80F3
:102EF00092009DF80401AA28EBD120700120708077
:102F00005BE09DF80401552825D170885521215496
:102F1000401C7080022050E07088022802D00328F4
:102F200004D01BE09DF80411B18017E0B1889DF832
:102F3000042141EA0221B180757005290CD200F00C
:102F4000CDFDB0FBF9F1B088009040F27523494AFD
:102F500049A002F059FB73E0032131709DF8041180
:102F600021543EE09DF80411012969D17078401C7C
:102F7000707070882154B188491EB180401C7080E7
:102F800004201AE070789DF804110844707070886D
:102F90002154B188491EB180401C708005200CE08E
:102FA00070789DF804110844707070882154B188BD
:102FB000491EB180401C70800620307041E070785E
:102FC0009DF804110844707070882154B188491E1E
:102FD0000904090CB18002D00721317001E086F8A4
:102FE0000080401C70802CE070789DF8041108442B
:102FF000707070882154401C7080B088401E80B270
:10300000B08001281DD186F800801AE070889DF8F4
:1030100004112154401C81B271809DF80401727822
:10302000904203D1204600F0D9FD09E000F056FDA2
:10303000B0FBF9F140F2CA230E4A18A002F0E4FAFC
:10304000357041A9504600F011FB00283FF442AF13
:1030500000F044FD07F10A01884204D800F03EFD6B
:10306000B842BFF432AF42B0BDE8F0871C00002088
:10307000E0070020636600085B5538732025645D17
:103080002025733A282564296C656E6774683D2590
:10309000642C6572726F722E0A0000005B553873E3
:1030A0002025645D2025733A282564294342206346
:1030B0006865636B73756D206572722E0A0000007F
:1030C0002DE9FE4F0E460446012700F007FD4FF4A0
:1030D0007A75B0FBF5F1207CA37C627C8DE80D0055
:1030E00024235B4A5BA002F08FFA721C214665A084
:1030F00001F034F8207C0026DFF898814FF00109B8
:103100004FF0A50A13286DD006DC022845D005280B
:1031100036D00A2806D144E017287DD028287CD054
:1031200099280BD000F0DAFCB0FBF5F1207C009080
:103130007123474A58A002F067FA7CE0607C70B1C6
:1031400000F0CCFCB0FBF5F13323414A5EA002F065
:103150005BFA84F8129088F8356002276FE000F07F
:10316000BDFCB0FBF5F12C23394A60A002F04CFA0B
:10317000A674454688F835A000F0B0FCA863ECE7DB
:1031800000F0ACFCB0FBF5F13C23314A60A002F04A
:103190003BFA022000F0A4FF50E088F834A0BDE81C
:1031A000FE8F00F09BFCB0FBF5F1607C00904723A4
:1031B000274A60A002F028FA607C88B10220A0743F
:1031C000E074207500F08AFCB0FBF5F1A07C237D53
:1031D000E27C8DE80D0052231D4A62A002F014FA31
:1031E00004272CE0667401222146002001F0C0F87B
:1031F00000F074FCB0FBF5F15A23154A62A002F00E
:1032000003FA284600F002FABFF34F8F69480168BD
:10321000694A01F4E06101E005E008E01143016062
:10322000BFF34F8FFEE700F011FB607407E098F8E2
:103230002300A52802D084F8119000E0667403B042
:103240003A462146BDE8F04F002001F091B8000059
:10325000EE6500085B5538732025645D2025733AC0
:1032600028256429636F6D636F6D20636D64203D55
:10327000205B2523785D2C205B25645D2C205B255D
:10328000645D0A004465627567BDD3CAD5CAFDBED8
:10329000DD000000940500205B5538732025645D37
:1032A0002025733A28256429B4EDCEF3636F6D634E
:1032B0006F6D20636D64203D205B2523785D2C209D
:1032C0006572726F720A00005B5538732025645D69
:1032D0002025733A28256429B9D8B1D5C9CFCEBBEA
:1032E000BBFABCECB2E2210A000000005B55387367
:1032F0002025645D2025733A28256429B4F2BFAAED
:10330000C9CFCEBBBBFABCECB2E2210A0000000080
:103310005B5538732025645D2025733A2825642980
:1033200044454255475F434D445F5452554D5054B8
:1033300045200A005B5538732025645D2025733ACB
:103340002825642944454255475F434D445F47451E
:10335000545356455220646174615B305D3D256471
:10336000200A00005B5538732025645D2025733AE0
:1033700028256429B0E6B1BEBAC55B25642E256454
:103380002C25645D0A0000005B5538732025645DC0
:103390002025733A2825642944454255475F434D0B
:1033A000445F5245424F4F54D6D8C6F4CFB5CDB343
:1033B000A3A10A000CED00E00400FA052DE9FE438C
:1033C000734C00F08BFB07464FF001094FF47A78FD
:1033D0000026704DCFE000F081FB074628780C28CE
:1033E0002AD2DFE800F0060FC1C11A2A395C6976DB
:1033F0008EA19DF80800AA281ED120704846A5F885
:1034000002907CE09DF808105529F5D10420287021
:1034100068882154401C68800DE068889DF8081079
:103420002154401C6880A888401C80B2A8800528D0
:1034300002D305200EE0AE8096E068889DF8081063
:103440002154401C6880A888401C80B2A8800528B0
:10345000F2D306202870EEE768889DF80810215402
:10346000401C80B26880A988491C89B2A9800229C1
:103470007AD3204430F8020CA880FF280BD900F042
:103480002DFBB0FBF8F1A8880090C123424A43A06D
:1034900002F0BAF867E0072028706E7064E0688870
:1034A0009DF808102154401C688068789DF8081029
:1034B00008446870082022E068889DF808102154AC
:1034C000401C688068789DF80810084468700920DE
:1034D00015E068889DF808102154401C68806878C1
:1034E0009DF8081008446870A888042801D3001FBC
:1034F00000E000200004000CA88013D00A202870EF
:1035000032E068889DF808102154401C6880687873
:103510009DF8081008446870A888401E0004000C3C
:10352000A88021D10B20EAE768789DF8081088422E
:103530000BD16A88214621A000F010FE23480671B5
:1035400069882046FFF7BCFD0DE000F0C7FAB0FB2C
:10355000F8F19DF808206878CDE90002F1230E4AC1
:103560001BA002F051F82E7002A9274800F07EF847
:1035700000283FF430AF00F0B1FA07F10A018842A9
:1035800003D800F0ABFAB842EED2BDE8FE830000EB
:103590008800002016000020FB6500085B5538738A
:1035A0002025645D2025733A282564296C656E3DCD
:1035B00025642C6572726F722E0A00004465627574
:1035C000675265637650726F63000000240000202C
:1035D0005B5538732025645D2025733A28256429BE
:1035E00073756D3D253032782C706B742073756D5A
:1035F0003D253032782C6572726F722C64726F7058
:1036000020706B742E0A0000D407002070B50546A8
:1036100000244FF47A7603E0304600F005F8641C8D
:10362000AC42F9D370BD000070B54FF0E025002129
:103630006C69094AAB6912785043AA699A42FCD076
:1036400002D2A3EB020302E0A4EB020633441944C6
:1036500013468142F1D370BD740000200028FDD0D4
:103660000021C18001814181084670474289038958
:103670009A4213D0028903681344521C02811A78BB
:103680000A7081880289914201D800210181C18894
:1036900011B1C188491EC180002070474FF0FF3032
:1036A0007047002343608360016082801846704742
:1036B000428903899A42428901D283881A44038944
:1036C000D21A8388521C934210D94289036813444A
:1036D000521C42811970C188491CC180818842896D
:1036E000914201D800214181002070474FF0FF3006
:1036F000704700002DE9F0410024164D4FF47A7612
:10370000012740F20A2800F094F800F07DF888B113
:1037100000F08FF8641CE4B26F7500F0DFF9B0FBC5
:10372000F6F143460C4A0DA001F06EFF322CEAD3AD
:10373000BDE8F08100F07DF8A520687500F0CEF9B5
:10374000B0FBF6F1BDE8F04140F20223024A0DA0C1
:1037500001F05ABF94050020C76600085B55387316
:103760002025645D2025733A28256429464D31378C
:103770003558585F496E6974206572726F722E0DEC
:103780000A0000005B5538732025645D2025733ADC
:1037900028256429464D31373558585F496E69747C
:1037A000204F4B2E0D0A000010B54FF09044012120
:1037B000204602F09CFA0A20FFF728FF00F039F8B3
:1037C0000121204602F095FA0A20FFF71FFF00F0C2
:1037D00030F8012000F044FD04460146202204A0F8
:1037E00001F012FF202C01D0012010BD002010BDDF
:1037F0007265675F64617461203D205B2523785D9D
:103800002C5B2523785D0A0010B500F012F800F05B
:103810002DFFFFF7C9FF10B14FF0FF3010BD00F0D2
:1038200008F8002000F0ADFB032000F0AEFE002001
:1038300010BD02F021BA10B5002303E010F8014BCF
:10384000CC545B1C9342F9D3002010BDF8B5184846
:103850000024184D009002F08DF9284602F04CF932
:10386000342002F03BF902F03FF94FF47A766F14FE
:10387000042269462846FFF769F850B100F02EF996
:10388000B0FBF6F156230C4A0CA001F0BDFE01205E
:10389000F8BD241D2D1DBC42EAD300F01FF9B0FB7A
:1038A000F6F15D23044A0FA001F0AEFE0020F8BD42
:1038B0006655443300FC0008BD6600085B5538734C
:1038C0002025645D2025733A28256429466C6173A0
:1038D0006854657374206661696C656421212120D8
:1038E0000A0000005B5538732025645D2025733A7B
:1038F00028256429466C61736854657374204F4BA6
:10390000212121200A0000002DE9F05F154689469B
:103910008346FFF78EFF02F02DF9ABF10060C0F394
:103920000906C6F580644FEA9028A54200D82C46C7
:10393000FFF77FFF4FF0006000EB882082464FF4D6
:1039400080622B49FFF777FF002711E02848F11923
:10395000405CFF280BD000F0C1F84FF47A71B0FB47
:10396000F1F17D23234A24A001F04EFE02E07F1CEA
:10397000A742EBD3A74214D2504602F0BDF8342040
:1039800002F0ACF800201A4A04E019F8001083197C
:10399000401CD154A042F8D350464FF480721449D1
:1039A00006E0A0074FEA940200D0521C4946584650
:1039B00000F03EF8A5420FD100F090F84FF47A7174
:1039C000B0FBF1F193230B4A12A001F01DFE02F0AF
:1039D0008BF80020BDE8F09F281BA144A3440026DB
:1039E00085B24FF4806408F10108A542A0D89EE793
:1039F00093010020876600085B5538732025645DBD
:103A00002025733A28256429D0E8D2AAB2C1B3FD93
:103A10002E0A00005B5538732025645D2025733A1B
:103A200028256429D0B4CDEAB3C9B9A62E0A00006E
:103A30002DE9F84390468946064602F09BF800259A
:103A40004FF47A771BE00024342002F047F859F84D
:103A50002510304602F09EF8C0B10120FFF7D6FDD8
:103A60002046641CB842F8D900F038F8B0FBF7F1F2
:103A70004123074A07A0009601F0C6FD6D1C45458D
:103A8000E1D302F031F80020BDE8F883361DF5E7F8
:103A9000786600085B5538732025645D2025733AED
:103AA00028256429D0B4666C617368B3ACCAB12CA4
:103AB000205B307825785D2C20B4EDCEF3212121D8
:103AC000200A0000034610B50020024603E09C5C7B
:103AD000521C2044C0B28A42F9DB10BD0148806804
:103AE000704700002C000020064A5178481C507096
:103AF000054821B100215170402102F0FAB840215F
:103B000002F0F5B87C00002000040048002909D12B
:103B1000054A00284FF00201104601D002F0E9B832
:103B200002F0E5B870470000000400482DE9F041BC
:103B3000114D124E0024314655F8240002F01FFDAD
:103B400098B10F4904EB440001EB800755F82400BD
:103B500002F0D2FCC1B23846FFF7AAFD55F82400A6
:103B60003146BDE8F04102F002BD641CE4B2022C13
:103B7000E1D3BDE8F08100004C00002005000507FE
:103B8000D407002010B540F2125002F05FFB0D4C3C
:103B9000012240231146204602F0B2F840230322BE
:103BA0000021204602F0D0F8012280231146204651
:103BB00002F0A6F8204680230322BDE81040002131
:103BC00002F0C2B800040048C279012A03D0022AD8
:103BD00003D1FEF72BBFFEF777BF704770B50D46D8
:103BE0000446FFF726FEA279012A09D0022A0DD049
:103BF000032A11D129462046BDE8704000F01CB8C8
:103C000029462046BDE87040FFF7DEBF2946204622
:103C1000BDE8704000F001B870BDC279012A08D03B
:103C2000022A08D000210123017202221946FEF760
:103C300067BE00F0C5BD704770B50E46C17900245F
:103C40000546012906D0022928D13146BDE8704039
:103C500000F004BC0146324611A000F07FFA314664
:103C6000284601F0E9F988B1FFF738FF4FF47A717F
:103C7000B0FBF1F14FF407730F4A10A001F0C4FC40
:103C800001242046BDE8704001F0B4B9052000F0E1
:103C900027FA1249A52081F82400F2E770BD000040
:103CA000454E554D5F555047524144455F52455131
:103CB0005545535400000000526600085B553873A8
:103CC0002025645D2025733A28256429B2BBBFC92D
:103CD000D2D4C9FDBCB62121210A000094050020E0
:103CE00000B587B010B1012802D004E0602000E0E8
:103CF00061208DF8040088008DF8050010788DF89B
:103D0000060050788DF8070090788DF80800D0787C
:103D10008DF8090010798DF80A0050798DF80B00A4
:103D200018788DF80C0058788DF80D0098788DF87B
:103D30000E00D8788DF80F00012000F0A8F9FFF7E9
:103D4000A5F805A8009004AB0C2201A90E2000F0F4
:103D50005AF838B9082000F083FA000702D500208D
:103D600007B000BD0120FBE77FB504460D460120EA
:103D700000F08DF930228DF808208DF80940FFF70A
:103D800085F803A800902B46022202A90C2000F01F
:103D90003AF80446FFF7A2FE4FF47A71B0FBF1F156
:103DA0000398CDE900044FF4E373064A06A001F03E
:103DB0002BFC14B90398802802D0012004B070BDF8
:103DC0000020FBE7008800085B5538732025645D00
:103DD0002025733A28256429726563655F626974DA
:103DE0006C656E3A202564202C726573756C7420A6
:103DF0003D202564200A000010B5FFF71AFDBDE83C
:103E0000104000F0E9B92DE9F0479946144688467C
:103E100007460026DDF820A0FFF738F8FFF709FD78
:103E200020210B2001F0EBFB7F21042001F0E7FBB8
:103E30000E2F07D14146204601F0D4FB80210D20F2
:103E400000F097FB80212A2000F093FB39460120E7
:103E500001F0D5FBFFF7EDFC042000F001FA054668
:103E6000C00703D020250C2F5CD076E00E2F11D098
:103E7000042F12D00C2FEDD1680739D5C4B3202CF4
:103E8000414629D9202001F0ADFB203CE4B208F1E5
:103E9000200825E0E806DDD560E0680717D5B4B155
:103EA000202C414604D2204601F09CFB002406E071
:103EB000202001F097FB203CE4B208F1200880218B
:103EC0000D2000F056FB0421084601F098FB68061F
:103ED000C0D5002CBED141E0204601F083FB002478
:103EE00080210D2000F045FB0421084601F087FBEE
:103EF000280712D5680610D57CB90A2000F0B0F961
:103F000020280AD909EB0601202000F09BF9203671
:103F1000F6B20821042001F072FBA8069AD5002C05
:103F200098D100250A2000F09BF907460C2000F0EC
:103F300097F900F007040FB904B1012709EB060156
:103F4000384600F07FF9F019C0B21CB1C000083843
:103F5000011900E0C100CAF800101DB9062000F0E8
:103F60007FF9054680210C2000F003FB2021012071
:103F700001F045FB80210D20FEF77CFF2846BDE8BF
:103F8000F08710B50446FFF754FC24B1012C45D04E
:103F9000022C5DD05AE010210C2000F0EAFA4021FA
:103FA000152000F0E6FA0021122001F028FB002184
:103FB000132001F024FB8021392000F0DAFA0121DE
:103FC0003C20FEF757FF07213D20FEF753FF03215A
:103FD0003E20FEF74FFFFF21332001F010FB0721A9
:103FE000322001F00CFBF121272001F008FB3F21DA
:103FF000282001F004FB0121292001F000FB4021D1
:10400000262001F0FCFA0D21192001F0F8FA842194
:10401000182001F0F4FA4021362015E010210C2080
:1040200001F0EDFA8321122001F0E9FA8321132037
:1040300001F0E5FAF421272001F0E1FAF421232030
:1040400001F0DDFA002120E001F0D9FA002010BDD6
:1040500010210C2001F0D3FA9221122001F0CFFAA6
:104060009621132001F0CBFAF421272001F0C7FAA2
:104070002021282001F0C3FA4F21232001F0BFFAAC
:104080002021292001F0BBFA07211520DCE770B5BB
:1040900040F29F6100244843611E01224FF6FF73E6
:1040A00001EBC0011D1102EB4400B1FBF0F098429E
:1040B00002D3641CAC42F6D385B2C4F307212A2094
:1040C00000F057FAE1B22B2001F099FA290A2C20CE
:1040D00001F095FAE9B22D2001F091FA002070BDAF
:1040E00070B5054600241C4E09E00A20FFF78EFA41
:1040F0002046641CC82802DD4FF0FF3070BD20212F
:10410000304601F0F8FD0028EFD10821304601F0DB
:10411000F0FD6420FFF788FA0821304601F0E7FD42
:104120006420FFF781FA002411E0FFF782FB1021E1
:10413000304601F0DEFD6420FFF776FA10213046AC
:1041400001F0D5FD6420FFF76FFA641CE4B2AC42C5
:10415000EBD3002070BD0000000400487CB515467C
:104160000E460446FFF7BAFC4FF47A71B0FBF1F14A
:1041700051230A4A0AA0CDE9004501F045FA00247E
:1041800004E0315D11A001F03FFA641CAC42F8D3A9
:10419000BDE87C400FA001F037BA0000A46600081B
:1041A0005B5538732025645D2025733A28256429E2
:1041B00063616C6C2062792025732C6C656E3D25E3
:1041C000642C70646174613A00000000253032583C
:1041D000000000000A00000010B5FEF743FD184C77
:1041E000A07DA5282AD1FFF724FB0020A07594F814
:1041F0003410A52916D0FFF771FCE16B41F288322B
:104200001144884204D2FFF769FCE16B884215D261
:10421000FFF764FCE0631A20FFF762FFBDE810407F
:1042200000F0AABA84F834001A20FFF759FF1022D0
:10423000BDE810400249022000F0F6B810BD0000B1
:104240009405002070B50D460646002405E00920BF
:1042500000F006F82855641CE4B2B442F7D370BDF0
:1042600000F058B8064A1178481C1070054821B172
:1042700000211170802101F03CBD802101F037BD8B
:104280007C0000200004004810B540F2125001F0FC
:10429000DDFF01231E4C1A461946204601F030FD71
:1042A000012303220021204601F04EFD01221023AC
:1042B0001146204601F024FD102303220021204650
:1042C00001F042FD012208231146204601F018FDAD
:1042D000082303220021204601F036FD202301227D
:1042E0000021204601F00CFD20230322002120465E
:1042F00001F02AFD0121204601F0FBFC102120469F
:1043000001F0F5FC2046BDE81040082101F0EFBCAB
:104310000004004870B504464FF09045102128462F
:1043200001F0E5FC802040EA4400C0B200F0F6F95C
:1043300000F0F1F904461021284601F0DAFC20468D
:1043400070BD70B50E4604464FF0904510212846CA
:1043500001F0CDFC7E2000EA440000F0DFF9304699
:1043600000F0DCF92846BDE87040102101F0C1BC26
:104370003EB50C46AA21217055216170E071101DD7
:10438000A0810120A073D01C81B2154604F10E005B
:10439000FFF798FB61194874FFF7A0FB4FF47A719F
:1043A000B0FBF1F1207CA37C627C8DE80D00102332
:1043B000094A0AA001F028F905F112021546214622
:1043C00014A0FFF7CBFE03B0AAB22146BDE83040EF
:1043D000002001F0A3B80000E16500085B553873C8
:1043E0002025645D2025733A282564297046726172
:1043F0006D652D3E686561642E636D64203D205BB4
:104400002523785D2C205B25645D2C205B25645D75
:104410000A000000B7A2CBCDCAFDBEDDB8F8B2FAE3
:10442000B2E2C8EDBCFE0000F0B5A1B00F460546F3
:10443000164680216846FDF7C0FE6C468DF8105088
:10444000324639460DF11100FDF79EFE32462146F7
:104450000020FFF78DFF21B0F0BD000070B500F126
:1044600008042248002590F82400A52801D0012541
:1044700012E02046FEF7ACFB4FF47A76022811D00A
:1044800050B10125FFF72AFBB0FBF6F140F2012302
:10449000174A18A001F0B8F82178284600F054F81F
:1044A000002070BD2178002000F04EF83046FFF764
:1044B000ADF82F20FFF714FEFFF710FBB0FBF6F16D
:1044C0004FF4FB730A4A13A001F09EF83046FFF741
:1044D0009DF8BFF34F8F1A4908681A4A00F4E0604C
:1044E00010430860BFF34F8FFEE7000094050020E3
:1044F0003F6600085B5538732025645D2025733ABC
:1045000028256429C9FDBCB6B4EDCEF32121210ACA
:10451000000000005B5538732025645D2025733A48
:104520002825642944454255475F434D445F524521
:10453000424F4F54D6D8C6F4CFB5CDB3A3A10A008D
:104540000CED00E00400FA0530B5A1B00C460546BC
:1045500080216846FDF731FE8DF808500223684639
:104560008DF8094003221946FEF7CAF921B0002050
:1045700030BD70B50C460546FFF772FE40EA0401F7
:10458000284601F03CF8002070BD70B50446FFF7E6
:1045900050F91420FFF764FE00F00300A04201D19F
:1045A000002070BD34B1012C06D0022C0ED0032C9B
:1045B0000ED006E0032100E001211420FEF75AFC92
:1045C0000546C820FFF722F8284670BD0221F4E70F
:1045D00003211420FFF7CDFFF2E7000010B540F2F1
:1045E000125001F033FE074C0122022311462046EF
:1045F00001F086FB204602230322BDE81040002183
:1046000001F0A2BB0004004810B5002418210C489A
:10461000FDF7D3FD0A48092104EB440200EBC20276
:104620005170641CF8D0012181713421C171FFF7F0
:10463000D5FF3421BDE81040002000F053BA00003F
:10464000EC08002058B109280CD00A280DD001230D
:10465000401E834003EA01001146FFF757BA114696
:104660000020FAE711460120F7E7704710B540F245
:10467000115001F0EBFD01224FF090441023114640
:10468000204601F03DFB102303220021204601F0CB
:104690005BFB01231A461946204601F031FB01233A
:1046A00003220021204601F04FFB01222023114666
:1046B000204601F025FB202303220021204601F0A3
:1046C00043FB012280231146204601F019FB802381
:1046D00003220021204601F037FB40230122002164
:1046E000204601F00DFB402303220021204601F06B
:1046F0002BFB0121204601F0FCFA1021204601F09D
:10470000F8FA8021204601F0F4FA2046BDE8104076
:10471000202101F0ECBAA520AFF300802DE9F04193
:10472000054600244FF0904728064FF08001384698
:1047300002D501F0DEFA01E001F0D9FA2021384675
:1047400001F0D7FA0120FEF76FFF6806060E402140
:10475000384601F0D0FA40EA06052021384601F03B
:10476000C6FA0120FEF760FF641CE4B2082CDBD31C
:104770002846BDE8F081000010B5A0B08021684651
:10478000FDF71BFD00218DF808106C46102208492A
:104790000DF10900FDF7F8FC012302221521204646
:1047A000FEF7AEF803A000F02FFF20B0002010BDF0
:1047B00094050020BFA8BAC5C9CFB1A8210D0A0031
:1047C00010B5007A28B105A000F01EFF4FF0FF30B1
:1047D00010BD08A000F018FF002010BDD6F7B0E50E
:1047E000B6C1BFA8D3A6B4F02C20B4EDCEF3210DF2
:1047F0000A000000CAD5B5BDD6F7B0E5B6C1BFA85E
:10480000D3A6B4F0210D0A00704700001A480168D1
:1048100041F00101016001688907FCD54168174A30
:10482000114041604168164A114041600168154AD3
:1048300011400160C16A144A1140C162016B40F22B
:10484000031291430163016B21F480310163016B19
:1048500021F000410163416B21F001014163D0F877
:10486000C01021F48031C0F8C01000218160C0F870
:10487000CC1001F015BD0000001002400C00FF0834
:10488000FFFFC277FFFFF2FEF0FFFF3F70B540F67B
:104890001A1001F04FFC294C4FF47A7501281ED0F4
:1048A00040F61B1001F046FC01281FD040F61C10FA
:1048B00001F040FC012820D040F61D1001F03AFC28
:1048C000012821D040F61E1001F034FC012822D02E
:1048D00040F61F1001F02EFC012823D02AE0A0682A
:1048E0006223B0FBF5F1164A16A021E0A06866230A
:1048F000B0FBF5F1124A1DA01AE0A0686A23B0FBD4
:10490000F5F10F4A21A013E0A0686E23B0FBF5F18A
:104910000B4A26A00CE0A0687223B0FBF5F1084A10
:104920002BA005E0A0687623B0FBF5F1044A31A086
:1049300000F06AFEBDE8704001F01CBB2C000020B6
:10494000926600085B5538732025645D2025733A14
:1049500028256429CFB5CDB3CDE2B2BFB8B4CEBB64
:10496000B9DCBDCCB8B4CEBB0A0000005B553873CF
:104970002025645D2025733A28256429CFB5CDB361
:10498000C9CFB5E7B8B4CEBB0A0000005B55387399
:104990002025645D2025733A28256429CFB5CDB341
:1049A000C8EDBCFEB8B4CEBB0A0000005B5538733E
:1049B0002025645D2025733A28256429CFB5CDB321
:1049C000B6C0C1A2BFB4C3C5B9B7B8B4CEBB0A00A4
:1049D0005B5538732025645D2025733A28256429AA
:1049E000CFB5CDB3B4B0BFDABFB4C3C5B9B7B8B4EF
:1049F000CEBB0A005B5538732025645D2025733AD1
:104A000028256429CFB5CDB3B5CDB9A6BAC4B8B4FD
:104A1000CEBB0A0010B5042001F086FC0B480C49FF
:104A20000C4B0068B0FBF1F2B0FBF1F14FF47A707F
:104A300041434FF0E0201A70026942F00202026125
:104A40004161016941F00101016110BD8000002058
:104A500040420F007400002070B5174D154C012125
:104A6000284601F013FD00281BD00121284601F043
:104A700009FD617920790022FFF7E4FD2079401CCF
:104A8000207120790B280CD1E08A401C80B2E08292
:104A9000A18A884206D2E18A2069405C60710020C8
:104AA000207170BDA52020702846BDE8704001F03F
:104AB00087BC0000EC080020002C014010B501214B
:104AC0008C07204601F0E2FC002807D00121204697
:104AD00001F0D8FC02488168491C816010BD0000CB
:104AE0002C0000207FB504461E480E4630F8140006
:104AF00001F0ACFB1B4D0A3555F8240001F026FCF3
:104B00005320ADF800000020ADF80C00ADF8020015
:104B1000ADF8040002968DF80E0055F824006946A1
:104B200001F05CFC55F82400012101F0A7FC55F8C8
:104B30002400012101F04EFCA5F10C000122005DD2
:104B4000114601F0C3F955F8240001F0F9FB55F8BE
:104B5000240001F03AFC002C02D1286801F030FC5E
:104B60007FBD00002E0000202DE9F0438DB00646E9
:104B70000020019002900390049005900860087155
:104B80000C4620218DF818108DF81C008DF820009F
:104B90008DF8240080211220FEF76CF9802113206B
:104BA000FEF768F980210E2000F029FD00211D206C
:104BB00000F025FD0DF128080DF1040904AD8DF874
:104BC00028609DF818008DF829009DF81C100D2014
:104BD00000F015FD9DF82420214608F10200FDF7A4
:104BE000D3FA9DF82400801CC7B20120FFF74FFACA
:104BF00002AB3A460AA90C20CDF80090FFF703F962
:104C0000202867D000072AD50E20FFF729FB00F0E7
:104C10001F0709AB08AA06A9384600F01EF907A924
:104C2000384600F0F9F89DF8242002A904A8FDF701
:104C3000ABFA9DF824009DF82020284410F8011DAF
:104C400011400170002205E0A05CA95C0843A0545B
:104C5000521CD2B29DF824008242B0D2F4E70198EF
:104C6000082802D9C0F3C70600E001269DF82400F9
:104C700018B1311806292DD107E0052E2AD1324668
:104C800002A92046FDF780FA16E02844324602A920
:104C9000401EFDF779FA00200CE09DF82410014435
:104CA0000A19294412F8013D11F8011C0B43401C5C
:104CB0001370C0B2B042F0D320786178E2784840F7
:104CC000A178514048402179884203D100200DB09D
:104CD000BDE8F0830120FAE770B515460E4604469C
:104CE00000F038F880B9617871B9217889090CD160
:104CF00031469320FFF738FF30B92A4631469320DA
:104D000000F059F8002800D0012070BD1FB55020D8
:104D10008DF8040000208DF8050001460D2000F0FC
:104D20006EFC80211220FFF724FC80211320FFF766
:104D300020FC08210846FEF79DF80120FFF7A7F99F
:104D400003A8009002AB022201A90C20FFF75BF838
:104D500004B010BD1FB5044600200290802112202F
:104D6000FEF788F880211320FEF784F8082113202D
:104D7000FFF7FFFB07210D2000F041FC26208DF8F6
:104D80000C000120FFF783F902A8009001AB01227B
:104D900003A90C20FFF737F810B90298102802D0A9
:104DA000012004B010BD9DF8040020709DF805009E
:104DB00060700020F5E770B50C46064686B01546D3
:104DC00000210D2000F01BFC80211220FFF7D1FBF9
:104DD00080211320FFF7CDFB8DF8046070208DF843
:104DE0000500002001A9225C0B18401CC0B29A707B
:104DF0000528F8D30120FFF74AF905A8009003AB76
:104E0000072201A90C20FEF7FEFF002802D19DF821
:104E10000C10297006B070BDE8B1421E082A02D2FB
:104E200000EB001017E0A0F109030201082B03D2E8
:104E3000803A104408380EE0A0F11103082B02D28A
:104E40001044103807E0A0F11903072B04D2A2F593
:104E5000C0721044183808707047F0B5042510B9B6
:104E600058240C701D70441E0126082C02D22134D7
:104E70000C701E70A0F10904082C03D231340C70A0
:104E800002241C70A0F111040327082C02D2413423
:104E90000C701F70A0F11904072C02D23830087072
:104EA0001D70087800F00700092807D2DFE800F03D
:104EB000060507090B0D0F1113001670F0BD1770D2
:104EC000F0BD072008E00F2006E01F2004E03F208F
:104ED00002E07F2000E0FF201070F0BD2DE9F05FC0
:104EE000894604463E4900EB440001EB800A3D48F8
:104EF000934630F8140001F0A9F93A48001D30F843
:104F0000140001F0A3F9374F01212037A7F1100851
:104F100057F8242058F8240000F0BEFE07F10805D9
:104F2000A5F1100655F8242056F82400012100F0C0
:104F3000B3FE57F8243058F824000122022100F073
:104F4000DFFE57F824004FF6FF7703463A4600216C
:104F500000F0FAFE55F8243056F824000122022110
:104F600000F0CEFE55F8243056F824003A460021D1
:104F700000F0EAFE203D55F8240001F0C5FA55F88E
:104F80002400594601F08CFA55F82400042101F060
:104F90000EFB55F82400082101F011FBB9F1010FB7
:104FA00016D155F82400052101F0D6FAA5F10C0020
:104FB0000122005D022100F089FF0B484FF480724E
:104FC00000EB04215046FEF76CFB5046FEF746FB13
:104FD00055F8240001F0B0FA0020BDE8F09F000071
:104FE000D407002044000020D4050020FEF79EBD19
:104FF000FEF79CBD30B5A1B0054680216846FDF79F
:10500000DCF86C4601238DF808500322194620462F
:10501000FDF776FC0B22214602A0FFF79FF821B096
:10502000002030BD557067726164655265717565A9
:10503000737441636B0000002DE9FF41224D8168CC
:1050400000242960C1686960018A2981807CA87276
:10505000FEF744FD4FF47A76B0FBF6F12868AF7A9C
:105060002B896A688DE88D0040F2AF13174A184803
:1050700000F0CAFA1748012181620021C162016370
:105080002868A0B1686890B100F074FD124D05EB7E
:10509000842000F031FD342000F020FD641C1B2C26
:1050A000F5D300F021FD002004B0BDE8F081FEF74B
:1050B00015FDB0FBF6F140F2B713044A07A000F06B
:1050C000A3FA4FF0FF30EFE78801002029660008BF
:1050D000D888000894050020008C00085B553873C0
:1050E0002025645D2025733A2825642966696C654E
:1050F00073697A65206F72207061636B61676520E8
:105100006F722066775F766572736F6E2C206572A2
:10511000726F722121210000F8B500258DF8005032
:105120002C46FEF786FB0D4E0D4F09E00122694625
:10513000E019FEF780FB9DF80000641C284485B24E
:105140003068A042F2D83289AA4205D0294605A08B
:1051500000F05AFA0120F8BD0020F8BD88010020B7
:10516000008C0008D0A3D1E9B3F6B4ED2121215B76
:105170002523785D2C205B2523785D0D0A00000037
:105180002DE9F04F774E0D460146774A306B8BB0D4
:10519000104400242A46FEF7B7FB012856D0306B96
:1051A000724F2844642148433968B0FBF1F8FEF798
:1051B00095FC326B4FF47A79B0FBF9F13B682A44E5
:1051C000CDE90032CDF808803823694A69A000F0A3
:1051D0001BFAB06A796888427ED100297CD0316B95
:1051E0003A682944B0468A42F6D1FEF777FC4E462B
:1051F000B0FBF6F13C235E4A69A000F005FAB9461F
:105200007A68474672A0D8F8281000F0FDF9386B8C
:10521000D9F80020411976A000F0F6F9FEF75EFCFF
:10522000B0FBF6F1386B00903F23514A77A000F0B5
:10523000EBF9FFF771FF68B1FEF750FCB0FBF6F138
:1052400043234B4A80A000F0DFF982E089A000F000
:10525000DBF97EE0DFF838B28E4D4FF0000A4F46A2
:10526000B046CDF828A0CDF814A0CDF818A0CDF800
:105270001CA03889ADF828003868CDE9085000F046
:1052800079FC5E46584600F037FC342000F026FCDE
:1052900000F02AFC0A2208A93046FEF735FB0A2254
:1052A00005A93046FEF7C7FA1420FEF7AFF90A2227
:1052B00008A93046FEF7BFFABDF8280039898842B0
:1052C00024D109993A68914220D10899A9421DD167
:1052D000BDF81C10884200E03DE017D106990998FE
:1052E000884213D10599089888420FD1FEF7F6FB42
:1052F000B0FBF8F15D231E4A67A000F085F930206D
:10530000FEF7EEFE02200BB0BDE8F08FFEF7E6FBE5
:105310004646B0FBF6F1DDE90832BDF828008DE81D
:105320000D006423124A65A000F06EF9FEF7D6FB6B
:10533000B0FBF6F13A683889CDE9000265230C4AE2
:105340006D4800F061F9032C03D0641C032C88D352
:1053500006E00120D7E7401CB062306B2844306380
:105360000020D0E794050020008C00088801002070
:10537000096600085B5538732025645D2025733A63
:1053800028256429746F74616C2025642C6765740A
:105390002025642C205B256425255D2E0A00000055
:1053A0005B5538732025645D2025733A28256429D0
:1053B000D7EEBAF3D2BBB8F6B0FCD2D1BEADD0B402
:1053C000CDEA2C20BFAACABCD0A3D1E92E0A000086
:1053D00043757272656E745061636B616765203DE1
:1053E000205B25645D2C205B25645D0A00000000C5
:1053F0005265636569766553697A65203D205B2552
:10540000645D2C205B25645D0A0000005B553873E9
:105410002025645D2025733A28256429476C6F6236
:10542000616C496E666F2E55706772616465467770
:105430002E416464724F6666736574203D205B255F
:1054400023785D2E0A0000005B5538732025645DCB
:105450002025733A28256429757067726164652078
:10546000636865636B73756D206572726F722E0A67
:1054700000000000313131313131313131313131E0
:1054800031313131312C206572726F722100000090
:1054900000FC0008DEBC55AA5B5538732025645D0E
:1054A0002025733A28256429757067726164652028
:1054B000737563636573732E0A0000005B55387360
:1054C0002025645D2025733A28256429757067724C
:1054D000616465206572726F722C205B2523785D94
:1054E0002C205B2523785D2C205B2523785D2C20E8
:1054F0006572726F722E0A002889000810B54FF489
:10550000964201210020FFF7E9FC0121BDE810408F
:105510004FF4E1320846FFF7E1BC00002DE9F04707
:1055200017468846054600240E4E40F2077910E0E3
:10553000FEF77FF918F8041056F8250000F0E0FF98
:1055400056F82500494600F0FCFF0028F8D0641CFE
:10555000A4B2BC42ECD31420FEF758F80020BDE8FA
:10556000F08700004C00002070B5124E0546002464
:105570000221304600F0BBFB0820FEF755F8E80793
:105580004FF00201304602D000F0B3FB01E000F022
:10559000AEFB0820FEF748F8641C6D08E4B2082C46
:1055A000EDD30221304600F0A4FBBDE87040082096
:1055B000FEF73AB80004004810B54FF410642046D6
:1055C00000F0C8FD204600F0D3FD0128FAD10421E7
:1055D0004FF47F6000F028FB00F04EFBBDE8104068
:1055E00000F052BB70B50D460646002404E0295D6C
:1055F000092000F004F8641CB442F8D370BD10B563
:10560000FEF79FFE002010BD0FB4054B10B503A997
:10561000044A029800F02CF810BC5DF814FB00005E
:10562000C95B0008840000200FB4084B10B504A922
:1056300002AA039800F01CF8044602A9002000F01A
:1056400048FA204610BC5DF814FB0000D35A00084D
:1056500002E008C8121F08C1002AFAD1704770473B
:10566000002001E001C1121F002AFBD17047000099
:105670002DE9FF4F8DB00F460546002606E0252890
:105680000BD0DDE90F1290476D1C761C287800289E
:10569000F5D111B03046BDE8F08F0024A246A146F6
:1056A0000122EC4900E0044315F8013F203B02FAD7
:1056B00003F00842F7D128782A2810D06FF02F0283
:1056C0002878A0F13001092914D80AEB8A0102EBED
:1056D000410144F0020400EB010A6D1CF0E701CF28
:1056E0005FEA000A03D544F40054CAF1000A44F00A
:1056F00002046D1C28782E2817D115F8010F44F0EC
:1057000004042A280ED06FF02F022878A0F130016F
:1057100009290AD809EB890102EB410100EB0109D3
:105720006D1CF2E757F8049B6D1C28786C280FD08D
:1057300006DC4C2817D068280DD06A2814D104E064
:10574000742810D07A280FD10DE044F400140AE038
:1057500044F4801401E044F440146978814202D199
:1057600004F580146D1C6D1C2A786E2A1FD00CDC89
:10577000632A31D004DC002A8BD0582A11D1A3E04F
:10578000642A68D0692A0CD165E0732A2ED004DC23
:105790006F2A73D0702A04D19BE0752A6FD0782AC3
:1057A0006ED01046DDE90F129047761C50E1C4F32D
:1057B0000250022806D0032809D0042801CF09D0BE
:1057C000066045E101CFF117C0E9006140E101CF7A
:1057D00006803DE106703BE117F8040B8DF80000F0
:1057E00000208DF80100EB46012003E057F804BBD0
:1057F0004FF0FF3061074FF0000102D40DE008F1D7
:105800000101884649450FDA8045F8DB1BF808108E
:105810000029F4D108E008F1010188468142FADB51
:105820001BF808100029F6D1DDE90F23AAEB0800C8
:105830008146214600F036F9304400EB080604E0CA
:10584000DDE90F121BF8010B9047B8F10108F7D200
:1058500021464846F7E00A21C4F302534FF0000BFB
:105860000891022B04D001CFC117032B09D00AE005
:10587000FF1D27F00707F7E8020108E032E01FE00C
:1058800020E000B2C117042B01D140B2C117031EA2
:1058900071F1000307DA4FF0000CD0EB0C006CEB59
:1058A00001012D2302E0230504D52B238DF824309C
:1058B000012303E0E30701D02023F7E7984658E0EF
:1058C0000A2110E010210EE010204FF0000B08908C
:1058D0000CE010214FF0000B44F004044FF00809D5
:1058E000089103E008214FF0000B0891C4F3025324
:1058F000022B04D001CF0021032B06D006E0FF1DB0
:1059000027F00707F7E8020103E080B2042B00D17B
:10591000C0B24FF0000823072BD5702A07D0DDF85E
:1059200020C08CF0100C5CEA0B0C05D00EE040237C
:105930008DF82430012308E050EA010306D030231B
:105940008DF824308DF8252002239846DDF820C0FC
:105950008CF0080C5CEA0B0C0BD150EA010301D16E
:10596000630706D530238DF824304FF00108A9F1E4
:105970000109582A04D038A20B9208AA0A920BE017
:105980003AA2F9E75B46089AFCF722FC0B9B9B5C6A
:105990000A9A521E0A92137050EA0102F2D10A9832
:1059A000ADEB000000F1200B600702D524F4803439
:1059B00001E04FF00109D94502DDA9EB0B0000E041
:1059C000002000EB0B0141440890AAEB010AE00320
:1059D00006D4DDE90F232146504600F063F8064463
:1059E0004FF0000908E009A911F80900DDE90F12DC
:1059F000904709F10109761CC145F4DBE0030CD5A1
:105A0000DDE90F232146504600F04CF8064404E03F
:105A1000DDE90F1230209047761C0899481E089047
:105A20000029F5DC08E00A980A990078491C0A91D7
:105A3000DDE90F129047761CBBF10001ABF1010BC1
:105A4000F1DC21465046DDE90F2300F019F8064449
:105A50006D1C1BE6092801003031323334353637EE
:105A600038396162636465660000000030313233AA
:105A7000343536373839414243444546000000004A
:105A80002DE9F041044600251E461746880404D43B
:105A900005E039462020B0476D1C641EF9D5284624
:105AA000BDE8F0812DE9F041044600251E469046F0
:105AB000C80301D5302700E02027880404D505E07D
:105AC00041463846B0476D1C641EF9D52846BDE8EE
:105AD000F0810A68531C0B60107070470149C86060
:105AE00070470000002002400248016941F0800137
:105AF000016170470020024070B505464FF47026E2
:105B0000304600F017F8002810D1094C206940F009
:105B1000020020616561206940F04000206130464C
:105B200000F008F8216921F00201216170BD000038
:105B30000020024000B5034600F008F85B1E012873
:105B400002D1002BF8D1042000BD0000084900203C
:105B5000CA68D20701D001207047CA68D20601D5B1
:105B600003207047C9684907FBD502207047000031
:105B70000020024004480169090603D50349416039
:105B8000034941607047000000200240230167453F
:105B9000AB89EFCDF0B506464FF470270D46384679
:105BA000FFF7C8FF00280CD1064C206940F0010027
:105BB000206135603846FFF7BDFF216921F0010102
:105BC0002161F0BD0020024070B50446FDF731FEB2
:105BD000124890F83500A52810D0114D688800268D
:105BE000FF2817D868880F490144401C68800C7052
:105BF0000A2C07D00D2C05D024B109E0E0B2FFF744
:105C0000B3FC05E06A8807490020FFF787FC6E8037
:105C1000204670BD4FF48072F5E700009405002027
:105C200040000020EC07002030B5124D104B45F22B
:105C300055541A462C60EC68521E04F0010402D040
:105C4000002CF8D100E04CB96960E9685B1E01F0F6
:105C5000020102D00029F8D102E009B1002030BDD4
:105C6000C0F30B00A8604AF6AA202860012030BDCE
:105C7000FFFF0F000030004002494AF6AA200860EA
:105C8000704700000030004002494CF6CC400860EC
:105C90007047000000300040F0B5046A456A0023F8
:105CA0004FF0010C4FF00F0E0CFA03F6164206D01F
:105CB0009E000EFA06F7BC4301FA06F73C435B1C54
:105CC0009BB2082BF0D308230CFA03F6164207D038
:105CD0009E00203E0EFA06F7BD4301FA06F73D434B
:105CE0005B1C9BB2102BEFD304624562F0BD816256
:105CF0007047816170470069084000D001207047FB
:105D00002DE9F0470568C66800244FF0010A4FF0FE
:105D100003090AFA04F71F420ED0670009FA07FCCC
:105D200025EA0C0526EA0C0601FA07F802FA07FC38
:105D300048EA05054CEA0606641CA4B2102CE8D318
:105D40000560C660BDE8F087F0B50129416830D034
:105D500099434160846801260327A2F57F41FF39FA
:105D600013D0002106FA01F51D4208D04D0007FAB4
:105D700005FC24EA0C0402FA05FC4CEA0404491C64
:105D800089B21029EED38460F0BDC26B002106FAFF
:105D900001F51D4206D04FEA410C07FA0CFC4CEA13
:105DA00004042A43491C89B21029F0D38460C263D9
:105DB000F0BD1943CDE7000008B5FDF78FFE804622
:105DC00047463E460546B146FDF788FE4FF4005172
:105DD000880300F0C5F84FF4407000F0B7F8FCF706
:105DE00099FEDFF8B4B041F2883AFDF722FDFDF7E5
:105DF00075FE044606F5FA71A14201D9A64202D900
:105E00000646FEF72FFAFDF769FE09EB0A01884204
:105E100003D2FDF763FE484512D2FDF75FFE8146CF
:105E2000FDF762FEFDF75AFE4FF47A71B0FBF1F117
:105E30001A4855231A4A006800901AA0FFF7E4FB9D
:105E400005F5FA60A04201D9A54204D92546FDF71F
:105E5000D3FFFDF7EEFC9BF82300A5280AD007EB43
:105E60000A00A04201D9A74204D9FDF7E2FC274667
:105E7000FCF7FCFDFDF7A2FAFDF714F84EF66021E1
:105E800008EB0100A04201D9A045AED9FDF7D1FC35
:105E9000A046FCF7B1FDA8E7940500208000002093
:105EA000CE6500085B5538732025645D2025733A64
:105EB0002825642953797374656D436F7265436C4B
:105EC0006F636B5B25645D0A0000000030B51E4DFA
:105ED000002423462D6805F4E065B5F5A06F12D0C7
:105EE00006DCB5F5407F14D0B5F5806F12D10DE01A
:105EF000B5F5C06F04D0B5F5E06F0BD1042309E010
:105F00000124032306E00224234603E003240123A3
:105F100000E00424C4F10404A140C3F104040F23ED
:105F2000E34013400B4300F1E022190182F8001412
:105F300000F01F02012191404009800000F1E020A3
:105F4000C0F8001130BD00000CED00E0024908432C
:105F500002490860704700000000FA050CED00E0FF
:105F6000024A1140014302480160704780FFFF1F51
:105F700008ED00E00248416A41F0807141627047DB
:105F8000001002402DE9F04760A288B074CA8DE885
:105F900074005FA2614ED2E90042CDE904425CA2E6
:105FA0008046D2E90042CDE90642002072680146EF
:105FB00003465B4DC2F381021AB1012A01D0022AC5
:105FC00001D02A4623E072687468C2F38342C4F3A6
:105FD000C067F46AE40F0FB1113200E0921C04B103
:105FE0001F327468F76AC4F30044C7F3807764B162
:105FF000F46A04F00F04641C27B14A4FB7FBF4F4B1
:10600000624304E0B5FBF4F4FAE7474C624374687A
:10601000C4F303141DF8047022FA07F477680DF135
:10602000100CC7F302271CF8077024FA07F97768E9
:106030000DF1180CC7F3C2274FF4004A1CF8077083
:1060400024FA07F7B8F1070F06D2DFE808F00408D2
:106050000A0C0E3C4400104608B0BDE8F08720460C
:10606000FAE74846F8E73846F6E7306BC00506D44D
:10607000306BC00301D42D4923E02D4921E0706825
:10608000C0F38132306BC00F32B1012A09D0022A2D
:106090000ED0032A15D110E008B1032003E07908DF
:1060A0000FE018B10520B7FBF0F10AE0B90808E0ED
:1060B00008B10720F7E70620F5E708B10920F2E765
:1060C000F9080846C8E7306B400602D448F21200CF
:1060D000C2E75046C0E7306B80070ED0306B00F04F
:1060E000030001280BD0306B00F00300022808D019
:1060F000306BC043800706D006E03B4604E0134601
:1061000002E0534600E02B461846A5E700000000D9
:106110000000000001020304060708090010024005
:1061200000127A00006CDC0200093D00809FD5005F
:10613000003FAB01064A02EB9011096800F01F0214
:1061400001209040014201D001207047002070479B
:1061500000100240054901EB90110A6800F01F038E
:106160000120984002430A6070470000001002407E
:1061700070B500234FF40066334D1C46B0421BD06F
:1061800005DC30B310280ED018285AD14DE0B0F5F8
:10619000106F3FD0B0F5506F26D000F57F60B0F59E
:1061A000804F4ED12BE01120FFF7C4FF5B1C08B9D4
:1061B000B342F8D1112040E040F601066FF07C4573
:1061C0003046FFF7B7FF5B1C08B9AB42F8D1304649
:1061D00033E04FF4A0650120FFF7ACFF5B1C08B96A
:1061E000AB42F8D1012028E040F601563046FFF7D7
:1061F000A1FF5B1C0028EAD1AB42F7D1E7E743F2ED
:1062000011063046FFF796FF5B1C0028DFD1AB423A
:10621000F7D1DCE740F601163046FFF78BFF5B1C39
:106220000028D4D1AB42F7D1D1E71920FFF782FF84
:106230005B1C08B9AB42F8D11920FFF77BFF00B116
:106240000124204670BD0000FFFF0F00054901EB4F
:1062500090110A6800F01F030120984002430A6071
:106260007047000000100240054901EB90110A68D8
:1062700000F01F030120984082430A60704700002D
:1062800000100240054901EB90110A6800F01F035D
:106290000120984002430A6070470000001002404D
:1062A0001E480021026842F480320260C314026872
:1062B000491C12F4003F01D19942F8D101688903C9
:1062C0002BD541684160416841F40051416041680B
:1062D00041F4806141604168114A11404160C16AE6
:1062E00021F04041C162C16A41F00101C1624168CF
:1062F0000C4A11434160016841F0807101600168FE
:106300008901FCD5416821F003014160416841F0F9
:106310000201416041680907FCD570470010024046
:10632000FFFFC277000011084FF0E0210428086940
:1063300003D020F004000861704740F00400FAE741
:10634000016841F080010160704700001A4A10B5F1
:10635000811A4FF4E05390421DD00ADCB0F1804F17
:106360001CD0164940181CD0984223D14FF48164A8
:1063700009E0B1F5A05F17D0B1F5C05F17D0994221
:1063800018D140F212342046FFF77CFF2046BDE8CA
:106390001040FFF769BF40F20B34F4E74FF480641C
:1063A000F1E740F20144EEE74FF44474EBE740F2CA
:1063B0001134E8E710BD0000002C014000FCFFBFD5
:1063C000016821F0010101607047016841F001019D
:1063D0000160704702698A4302617047F0B50A881C
:1063E0008262204A204B4FF08047904203D0B8424F
:1063F00001D098420BD1046824F070040460046852
:106400004D882C43046004688D882C4304608C689C
:10641000C462164C164D174E90420CD0B8420AD0AA
:10642000984208D0144B984205D0A04203D0A8420D
:1064300001D0B04207D1036823F4407303600368BE
:106440008F893B430360904205D0A04203D0A8420D
:1064500001D0B04201D1897B0163416941F0010162
:106460004161F0BD002C01400004004000400140AB
:10647000004401400048014000200040C2680A4337
:10648000C260704702698A4302617047C26800694E
:106490000A40084202D00AB101207047002070472C
:1064A00070B50D46044613490020611804D0B1F5BB
:1064B000744F04D1062000E00220FFF763FD21683D
:1064C0000A044FF6F07108D5400000EB5500B0FB10
:1064D000F5F0014000F0070206E000EB5500B0FBCC
:1064E000F5F0014000F00F02E06811430843E0605E
:1064F00070BD000000BCFFBF406AC0F308007047D9
:10650000C1F30801816270470A4910B5401805D0EF
:10651000B0F5744F0CD140F20E3401E040F211445A
:106520002046FFF7AFFE2046BDE81040FFF79CBEB7
:1065300010BD000000BCFFBF016841F00101016017
:10654000704700EB9110006801F01F02012191409B
:10655000084000D00120704710B5C1F3891283585C
:1065600001F01F040121A1400B43835010BD026ABA
:10657000C1F30443012199400A430262704730B5D8
:10658000C1F38912825800EB915001F01F050124DC
:1065900004FA05F300681A40C1F3044104FA01F358
:1065A000184202D00AB1012030BD002030BD02687F
:1065B00022F00402026002680A4302607047026827
:1065C00022F00802026002680A43026070476D61AF
:1065D000696E00436865636B5F4D315F4361726450
:1065E0000053656E644465627567506B7400446562
:1065F000627567506B7450726F63004465627567B3
:106600005265637650726F6300557067726164659E
:106610005F577269746500434F4D5F5570677261D3
:1066200064655F577269746500557067726164656F
:106630005265717565737448616E646C6572005360
:10664000656E64557067726164655061636B616704
:1066500065004D61696E426F617264557067726169
:10666000646500436F6D526563764D61696E426F7C
:106670006172644461746100466C61736857726949
:106680007465576F726400466C6173685772697401
:10669000650053797374656D5265736574526563F3
:1066A0006F7264005072696E746644617461004276
:1066B0005350466C617368577269746500466C612B
:1066C00073685465737400464D31373558585F43CD
:1066D0006F6E666967000000A56363C6847C7CF802
:1066E000997777EE8D7B7BF60DF2F2FFBD6B6BD663
:1066F000B16F6FDE54C5C5915030306003010102A7
:10670000A96767CE7D2B2B5619FEFEE762D7D7B55A
:10671000E6ABAB4D9A7676EC45CACA8F9D82821F56
:1067200040C9C989877D7DFA15FAFAEFEB5959B24C
:10673000C947478E0BF0F0FBECADAD4167D4D4B345
:10674000FDA2A25FEAAFAF45BF9C9C23F7A4A45370
:10675000967272E45BC0C09BC2B7B7751CFDFDE1C9
:10676000AE93933D6A26264C5A36366C413F3F7EA7
:1067700002F7F7F54FCCCC835C343468F4A5A5510F
:1067800034E5E5D108F1F1F9937171E273D8D8AB32
:10679000533131623F15152A0C04040852C7C795BE
:1067A000652323465EC3C39D28181830A1969637EB
:1067B0000F05050AB59A9A2F0907070E36121224FB
:1067C0009B80801B3DE2E2DF26EBEBCD6927274E65
:1067D000CDB2B27F9F7575EA1B0909129E83831D96
:1067E000742C2C582E1A1A342D1B1B36B26E6EDCEC
:1067F000EE5A5AB4FBA0A05BF65252A44D3B3B7636
:1068000061D6D6B7CEB3B37D7B2929523EE3E3DD13
:10681000712F2F5E97848413F55353A668D1D1B995
:10682000000000002CEDEDC1602020401FFCFCE3C7
:10683000C8B1B179ED5B5BB6BE6A6AD446CBCB8D8D
:10684000D9BEBE674B393972DE4A4A94D44C4C9853
:10685000E85858B04ACFCF856BD0D0BB2AEFEFC5F0
:10686000E5AAAA4F16FBFBEDC5434386D74D4D9ACB
:106870005533336694858511CF45458A10F9F9E97A
:1068800006020204817F7FFEF05050A0443C3C7819
:10689000BA9F9F25E3A8A84BF35151A2FEA3A35D85
:1068A000C04040808A8F8F05AD92923FBC9D9D2154
:1068B0004838387004F5F5F1DFBCBC63C1B6B67773
:1068C00075DADAAF63212142301010201AFFFFE59C
:1068D0000EF3F3FD6DD2D2BF4CCDCD81140C0C184C
:1068E000351313262FECECC3E15F5FBEA2979735FB
:1068F000CC4444883917172E57C4C493F2A7A75520
:10690000827E7EFC473D3D7AAC6464C8E75D5DBA3B
:106910002B191932957373E6A06060C098818119B4
:10692000D14F4F9E7FDCDCA3662222447E2A2A546C
:10693000AB90903B8388880BCA46468C29EEEEC705
:10694000D3B8B86B3C14142879DEDEA7E25E5EBCD7
:106950001D0B0B1676DBDBAD3BE0E0DB5632326421
:106960004E3A3A741E0A0A14DB4949920A06060C8A
:106970006C242448E45C5CB85DC2C29F6ED3D3BD76
:10698000EFACAC43A66262C4A8919139A49595314D
:1069900037E4E4D38B7979F232E7E7D543C8C88B83
:1069A0005937376EB76D6DDA8C8D8D0164D5D5B1E1
:1069B000D24E4E9CE0A9A949B46C6CD8FA5656AC9C
:1069C00007F4F4F325EAEACFAF6565CA8E7A7AF464
:1069D000E9AEAE4718080810D5BABA6F887878F0D3
:1069E0006F25254A722E2E5C241C1C38F1A6A65752
:1069F000C7B4B47351C6C69723E8E8CB7CDDDDA1EC
:106A00009C7474E8211F1F3EDD4B4B96DCBDBD61BD
:106A1000868B8B0D858A8A0F907070E0423E3E7C9B
:106A2000C4B5B571AA6666CCD8484890050303067C
:106A300001F6F6F7120E0E1CA36161C25F35356ACE
:106A4000F95757AED0B9B9699186861758C1C1991F
:106A5000271D1D3AB99E9E2738E1E1D913F8F8EBBE
:106A6000B398982B33111122BB6969D270D9D9A977
:106A7000898E8E07A7949433B69B9B2D221E1E3CB5
:106A80009287871520E9E9C949CECE87FF5555AAD7
:106A9000782828507ADFDFA58F8C8C03F8A1A159C4
:106AA00080898909170D0D1ADABFBF6531E6E6D76F
:106AB000C6424284B86868D0C3414182B0999929DE
:106AC000772D2D5A110F0F1ECBB0B07BFC5454A85C
:106AD000D6BBBB6D3A16162C6363C6A57C7CF884C6
:106AE0007777EE997B7BF68DF2F2FF0D6B6BD6BD5F
:106AF0006F6FDEB1C5C591543030605001010203A3
:106B00006767CEA92B2B567DFEFEE719D7D7B56256
:106B1000ABAB4DE67676EC9ACACA8F4582821F9D52
:106B2000C9C989407D7DFA87FAFAEF155959B2EB48
:106B300047478EC9F0F0FB0BADAD41ECD4D4B36741
:106B4000A2A25FFDAFAF45EA9C9C23BFA4A453F76C
:106B50007272E496C0C09B5BB7B775C2FDFDE11CC5
:106B600093933DAE26264C6A36366C5A3F3F7E41A3
:106B7000F7F7F502CCCC834F3434685CA5A551F40B
:106B8000E5E5D134F1F1F9087171E293D8D8AB732E
:106B90003131625315152A3F0404080CC7C79552BA
:106BA00023234665C3C39D5E18183028969637A1E7
:106BB00005050A0F9A9A2FB507070E0912122436F7
:106BC00080801B9BE2E2DF3DEBEBCD2627274E6961
:106BD000B2B27FCD7575EA9F0909121B83831D9E92
:106BE0002C2C58741A1A342E1B1B362D6E6EDCB2E8
:106BF0005A5AB4EEA0A05BFB5252A4F63B3B764D32
:106C0000D6D6B761B3B37DCE2929527BE3E3DD3E0F
:106C10002F2F5E71848413975353A6F5D1D1B96891
:106C200000000000EDEDC12C20204060FCFCE31FC3
:106C3000B1B179C85B5BB6ED6A6AD4BECBCB8D4689
:106C4000BEBE67D93939724B4A4A94DE4C4C98D44F
:106C50005858B0E8CFCF854AD0D0BB6BEFEFC52AEC
:106C6000AAAA4FE5FBFBED16434386C54D4D9AD7C7
:106C7000333366558585119445458ACFF9F9E91076
:106C8000020204067F7FFE815050A0F03C3C784415
:106C90009F9F25BAA8A84BE35151A2F3A3A35DFE81
:106CA000404080C08F8F058A92923FAD9D9D21BC50
:106CB00038387048F5F5F104BCBC63DFB6B677C16F
:106CC000DADAAF752121426310102030FFFFE51A98
:106CD000F3F3FD0ED2D2BF6DCDCD814C0C0C181448
:106CE00013132635ECECC32F5F5FBEE1979735A2F7
:106CF000444488CC17172E39C4C49357A7A755F21C
:106D00007E7EFC823D3D7A476464C8AC5D5DBAE737
:106D10001919322B7373E6956060C0A081811998B0
:106D20004F4F9ED1DCDCA37F222244662A2A547E68
:106D300090903BAB88880B8346468CCAEEEEC72901
:106D4000B8B86BD31414283CDEDEA7795E5EBCE2D3
:106D50000B0B161DDBDBAD76E0E0DB3B323264561D
:106D60003A3A744E0A0A141E494992DB06060C0A86
:106D70002424486C5C5CB8E4C2C29F5DD3D3BD6E72
:106D8000ACAC43EF6262C4A6919139A8959531A449
:106D9000E4E4D3377979F28BE7E7D532C8C88B437F
:106DA00037376E596D6DDAB78D8D018CD5D5B164DD
:106DB0004E4E9CD2A9A949E06C6CD8B45656ACFA98
:106DC000F4F4F307EAEACF256565CAAF7A7AF48E60
:106DD000AEAE47E908081018BABA6FD57878F088CF
:106DE00025254A6F2E2E5C721C1C3824A6A657F14E
:106DF000B4B473C7C6C69751E8E8CB23DDDDA17CE8
:106E00007474E89C1F1F3E214B4B96DDBDBD61DCB9
:106E10008B8B0D868A8A0F857070E0903E3E7C4297
:106E2000B5B571C46666CCAA484890D80303060578
:106E3000F6F6F7010E0E1C126161C2A335356A5FCA
:106E40005757AEF9B9B969D086861791C1C199581B
:106E50001D1D3A279E9E27B9E1E1D938F8F8EB13BA
:106E600098982BB3111122336969D2BBD9D9A97073
:106E70008E8E0789949433A79B9B2DB61E1E3C22B1
:106E800087871592E9E9C920CECE87495555AAFFD3
:106E900028285078DFDFA57A8C8C038FA1A159F8C0
:106EA000898909800D0D1A17BFBF65DAE6E6D7316B
:106EB000424284C66868D0B8414182C3999929B0DA
:106EC0002D2D5A770F0F1E11B0B07BCB5454A8FC58
:106ED000BBBB6DD616162C3A63C6A5637CF8847CC2
:106EE00077EE99777BF68D7BF2FF0DF26BD6BD6B5B
:106EF0006FDEB16FC59154C530605030010203019F
:106F000067CEA9672B567D2BFEE719FED7B562D752
:106F1000AB4DE6AB76EC9A76CA8F45CA821F9D824E
:106F2000C98940C97DFA877DFAEF15FA59B2EB5944
:106F3000478EC947F0FB0BF0AD41ECADD4B367D43D
:106F4000A25FFDA2AF45EAAF9C23BF9CA453F7A468
:106F500072E49672C09B5BC0B775C2B7FDE11CFDC1
:106F6000933DAE93264C6A26366C5A363F7E413F9F
:106F7000F7F502F7CC834FCC34685C34A551F4A507
:106F8000E5D134E5F1F908F171E29371D8AB73D82A
:106F900031625331152A3F1504080C04C79552C7B6
:106FA00023466523C39D5EC3183028189637A196E3
:106FB000050A0F059A2FB59A070E090712243612F3
:106FC000801B9B80E2DF3DE2EBCD26EB274E69275D
:106FD000B27FCDB275EA9F7509121B09831D9E838E
:106FE0002C58742C1A342E1A1B362D1B6EDCB26EE4
:106FF0005AB4EE5AA05BFBA052A4F6523B764D3B2E
:10700000D6B761D6B37DCEB329527B29E3DD3EE30B
:107010002F5E712F8413978453A6F553D1B968D18D
:1070200000000000EDC12CED20406020FCE31FFCBF
:10703000B179C8B15BB6ED5B6AD4BE6ACB8D46CB85
:10704000BE67D9BE39724B394A94DE4A4C98D44C4B
:1070500058B0E858CF854ACFD0BB6BD0EFC52AEFE8
:10706000AA4FE5AAFBED16FB4386C5434D9AD74DC3
:107070003366553385119485458ACF45F9E910F972
:10708000020406027FFE817F50A0F0503C78443C11
:107090009F25BA9FA84BE3A851A2F351A35DFEA37D
:1070A0004080C0408F058A8F923FAD929D21BC9D4C
:1070B00038704838F5F104F5BC63DFBCB677C1B66B
:1070C000DAAF75DA2142632110203010FFE51AFF94
:1070D000F3FD0EF3D2BF6DD2CD814CCD0C18140C44
:1070E00013263513ECC32FEC5FBEE15F9735A297F3
:1070F0004488CC44172E3917C49357C4A755F2A718
:107100007EFC827E3D7A473D64C8AC645DBAE75D33
:1071100019322B1973E6957360C0A06081199881AC
:107120004F9ED14FDCA37FDC224466222A547E2A64
:10713000903BAB90880B8388468CCA46EEC729EEFD
:10714000B86BD3B814283C14DEA779DE5EBCE25ECF
:107150000B161D0BDBAD76DBE0DB3BE03264563219
:107160003A744E3A0A141E0A4992DB49060C0A0682
:1071700024486C245CB8E45CC29F5DC2D3BD6ED36E
:10718000AC43EFAC62C4A6629139A8919531A49545
:10719000E4D337E479F28B79E7D532E7C88B43C87B
:1071A000376E59376DDAB76D8D018C8DD5B164D5D9
:1071B0004E9CD24EA949E0A96CD8B46C56ACFA5694
:1071C000F4F307F4EACF25EA65CAAF657AF48E7A5C
:1071D000AE47E9AE08101808BA6FD5BA78F08878CB
:1071E000254A6F252E5C722E1C38241CA657F1A64A
:1071F000B473C7B4C69751C6E8CB23E8DDA17CDDE4
:1072000074E89C741F3E211F4B96DD4BBD61DCBDB5
:107210008B0D868B8A0F858A70E090703E7C423E93
:10722000B571C4B566CCAA664890D8480306050374
:10723000F6F701F60E1C120E61C2A361356A5F35C6
:1072400057AEF957B969D0B986179186C19958C117
:107250001D3A271D9E27B99EE1D938E1F8EB13F8B6
:10726000982BB3981122331169D2BB69D9A970D96F
:107270008E07898E9433A7949B2DB69B1E3C221EAD
:1072800087159287E9C920E9CE8749CE55AAFF55CF
:1072900028507828DFA57ADF8C038F8CA159F8A1BC
:1072A000890980890D1A170DBF65DABFE6D731E667
:1072B0004284C64268D0B8684182C3419929B099D6
:1072C0002D5A772D0F1E110FB07BCBB054A8FC5454
:1072D000BB6DD6BB162C3A16C6A56363F8847C7CBE
:1072E000EE997777F68D7B7BFF0DF2F2D6BD6B6B57
:1072F000DEB16F6F9154C5C560503030020301019B
:10730000CEA96767567D2B2BE719FEFEB562D7D74E
:107310004DE6ABABEC9A76768F45CACA1F9D82824A
:107320008940C9C9FA877D7DEF15FAFAB2EB595940
:107330008EC94747FB0BF0F041ECADADB367D4D439
:107340005FFDA2A245EAAFAF23BF9C9C53F7A4A464
:10735000E49672729B5BC0C075C2B7B7E11CFDFDBD
:107360003DAE93934C6A26266C5A36367E413F3F9B
:10737000F502F7F7834FCCCC685C343451F4A5A503
:10738000D134E5E5F908F1F1E2937171AB73D8D826
:10739000625331312A3F1515080C04049552C7C7B2
:1073A000466523239D5EC3C33028181837A19696DF
:1073B0000A0F05052FB59A9A0E09070724361212EF
:1073C0001B9B8080DF3DE2E2CD26EBEB4E69272759
:1073D0007FCDB2B2EA9F7575121B09091D9E83838A
:1073E00058742C2C342E1A1A362D1B1BDCB26E6EE0
:1073F000B4EE5A5A5BFBA0A0A4F65252764D3B3B2A
:10740000B761D6D67DCEB3B3527B2929DD3EE3E307
:107410005E712F2F13978484A6F55353B968D1D189
:1074200000000000C12CEDED40602020E31FFCFCBB
:1074300079C8B1B1B6ED5B5BD4BE6A6A8D46CBCB81
:1074400067D9BEBE724B393994DE4A4A98D44C4C47
:10745000B0E85858854ACFCFBB6BD0D0C52AEFEFE4
:107460004FE5AAAAED16FBFB86C543439AD74D4DBF
:1074700066553333119485858ACF4545E910F9F96E
:1074800004060202FE817F7FA0F0505078443C3C0D
:1074900025BA9F9F4BE3A8A8A2F351515DFEA3A379
:1074A00080C04040058A8F8F3FAD929221BC9D9D48
:1074B00070483838F104F5F563DFBCBC77C1B6B667
:1074C000AF75DADA4263212120301010E51AFFFF90
:1074D000FD0EF3F3BF6DD2D2814CCDCD18140C0C40
:1074E00026351313C32FECECBEE15F5F35A29797EF
:1074F00088CC44442E3917179357C4C455F2A7A714
:10750000FC827E7E7A473D3DC8AC6464BAE75D5D2F
:10751000322B1919E6957373C0A0606019988181A8
:107520009ED14F4FA37FDCDC44662222547E2A2A60
:107530003BAB90900B8388888CCA4646C729EEEEF9
:107540006BD3B8B8283C1414A779DEDEBCE25E5ECB
:10755000161D0B0BAD76DBDBDB3BE0E06456323215
:10756000744E3A3A141E0A0A92DB49490C0A06067E
:10757000486C2424B8E45C5C9F5DC2C2BD6ED3D36A
:1075800043EFACACC4A6626239A8919131A4959541
:10759000D337E4E4F28B7979D532E7E78B43C8C877
:1075A0006E593737DAB76D6D018C8D8DB164D5D5D5
:1075B0009CD24E4E49E0A9A9D8B46C6CACFA565690
:1075C000F307F4F4CF25EAEACAAF6565F48E7A7A58
:1075D00047E9AEAE101808086FD5BABAF0887878C7
:1075E0004A6F25255C722E2E38241C1C57F1A6A646
:1075F00073C7B4B49751C6C6CB23E8E8A17CDDDDE0
:10760000E89C74743E211F1F96DD4B4B61DCBDBDB1
:107610000D868B8B0F858A8AE09070707C423E3E8F
:1076200071C4B5B5CCAA666690D848480605030370
:10763000F701F6F61C120E0EC2A361616A5F3535C2
:10764000AEF9575769D0B9B9179186869958C1C113
:107650003A271D1D27B99E9ED938E1E1EB13F8F8B2
:107660002BB3989822331111D2BB6969A970D9D96B
:1076700007898E8E33A794942DB69B9B3C221E1EA9
:1076800015928787C920E9E98749CECEAAFF5555CB
:1076900050782828A57ADFDF038F8C8C59F8A1A1B8
:1076A000098089891A170D0D65DABFBFD731E6E663
:1076B00084C64242D0B8686882C3414129B09999D2
:1076C0005A772D2D1E110F0F7BCBB0B0A8FC545450
:1076D0006DD6BBBB2C3A161650A7F4515365417EAC
:1076E000C3A4171A965E273ACB6BAB3BF1459D1F9F
:1076F000AB58FAAC9303E34B55FA3020F66D76ADF8
:107700009176CC88254C02F5FCD7E54FD7CB2AC51E
:10771000804435268FA362B5495AB1DE671BBA256E
:10772000980EEA45E1C0FE5D02752FC312F04C8150
:10773000A397468DC6F9D36BE75F8F03959C92158F
:10774000EB7A6DBFDA5952952D83BED4D32174588C
:107750002969E04944C8C98E6A89C27578798EF46E
:107760006B3E5899DD71B927B64FE1BE17AD88F071
:1077700066AC20C9B43ACE7D184ADF6382311AE57F
:1077800060335197457F5362E07764B184AE6BBB41
:107790001CA081FE942B08F95868487019FD458F8C
:1077A000876CDE94B7F87B5223D373ABE2024B7243
:1077B000578F1FE32AAB55660728EBB203C2B52FDC
:1077C0009A7BC586A50837D3F2872830B2A5BF2398
:1077D000BA6A03025C8216ED2B1CCF8A92B479A799
:1077E000F0F207F3A1E2694ECDF4DA65D5BE0506E5
:1077F0001F6234D18AFEA6C49D532E34A055F3A235
:1078000032E18A0575EBF6A439EC830BAAEF6040F0
:10781000069F715E51106EBDF98A213E3D06DD96D0
:10782000AE053EDD46BDE64DB58D5491055DC47196
:107830006FD40604FF15506024FB981997E9BDD654
:10784000CC434089779ED967BD42E8B0888B8907D1
:10785000385B19E7DBEEC879470A7CA1E90F427C67
:10786000C91E84F8000000008386800948ED2B3291
:10787000AC70111E4E725A6CFBFF0EFD5638850F10
:107880001ED5AE3D27392D3664D90F0A21A65C6876
:10789000D1545B9B3A2E3624B1670A0C0FE75793FD
:1078A000D296EEB49E919B1B4FC5C080A220DC6196
:1078B000694B775A161A121C0ABA93E2E52AA0C03D
:1078C00043E0223C1D171B120B0D090EADC78BF2B6
:1078D000B9A8B62DC8A91E148519F1574C0775AF64
:1078E000BBDD99EEFD607FA39F2601F7BCF5725CBE
:1078F000C53B6644347EFB5B7629438BDCC623CBD9
:1079000068FCEDB663F1E4B8CADC31D71085634298
:10791000402297132011C6847D244A85F83DBBD2AE
:107920001132F9AE6DA129C74B2F9E1DF330B2DC89
:10793000EC52860DD0E3C1776C16B32B99B970A9C0
:10794000FA4894112264E947C48CFCA81A3FF0A0BD
:10795000D82C7D56EF903322C74E4987C1D138D9F4
:10796000FEA2CA8C360BD498CF81F5A628DE7AA564
:10797000268EB7DAA4BFAD3FE49D3A2C0D92785025
:107980009BCC5F6A62467E54C2138DF6E8B8D890ED
:107990005EF7392EF5AFC382BE805D9F7C93D069C0
:1079A000A92DD56FB31225CF3B99ACC8A77D181070
:1079B0006E639CE87BBB3BDB097826CDF418596EDF
:1079C00001B79AECA89A4F83656E95E67EE6FFAA0A
:1079D00008CFBC21E6E815EFD99BE7BACE366F4A4F
:1079E000D4099FEAD67CB029AFB2A43131233F2A13
:1079F0003094A5C6C066A23537BC4E74A6CA82FCB8
:107A0000B0D090E015D8A7334A9804F1F7DAEC41EA
:107A10000E50CD7F2FF691178DD64D764DB0EF439A
:107A2000544DAACCDF0496E4E3B5D19E1B886A4C82
:107A3000B81F2CC17F51654604EA5E9D5D358C01FF
:107A4000737487FA2E410BFB5A1D67B352D2DB9237
:107A5000335610E91347D66D8C61D79A7A0CA1374B
:107A60008E14F859893C13EBEE27A9CE35C961B7BE
:107A7000EDE51CE13CB1477A59DFD29C3F73F255EA
:107A800079CE1418BF37C773EACDF7535BAAFD5FF1
:107A9000146F3DDF86DB447881F3AFCA3EC468B91A
:107AA0002C3424385F40A3C272C31D160C25E2BCDF
:107AB0008B493C2841950DFF7101A839DEB30C08B4
:107AC0009CE4B4D890C156646184CB7B70B632D547
:107AD000745C6C484257B8D0A7F4515065417E534E
